{
  "contractName": "TodoList",
  "abi": [
    {
      "inputs": [],
      "payable": false,
      "stateMutability": "nonpayable",
      "type": "constructor"
    },
    {
      "anonymous": false,
      "inputs": [
        {
          "indexed": false,
          "internalType": "uint256",
          "name": "id",
          "type": "uint256"
        },
        {
          "indexed": false,
          "internalType": "bool",
          "name": "completed",
          "type": "bool"
        }
      ],
      "name": "TaskCompleted",
      "type": "event"
    },
    {
      "anonymous": false,
      "inputs": [
        {
          "indexed": false,
          "internalType": "uint256",
          "name": "id",
          "type": "uint256"
        },
        {
          "indexed": false,
          "internalType": "string",
          "name": "content",
          "type": "string"
        },
        {
          "indexed": false,
          "internalType": "bool",
          "name": "completed",
          "type": "bool"
        }
      ],
      "name": "TaskCreated",
      "type": "event"
    },
    {
      "constant": true,
      "inputs": [],
      "name": "taskCount",
      "outputs": [
        {
          "internalType": "uint256",
          "name": "",
          "type": "uint256"
        }
      ],
      "payable": false,
      "stateMutability": "view",
      "type": "function"
    },
    {
      "constant": true,
      "inputs": [
        {
          "internalType": "uint256",
          "name": "",
          "type": "uint256"
        }
      ],
      "name": "tasks",
      "outputs": [
        {
          "internalType": "uint256",
          "name": "id",
          "type": "uint256"
        },
        {
          "internalType": "string",
          "name": "content",
          "type": "string"
        },
        {
          "internalType": "bool",
          "name": "completed",
          "type": "bool"
        }
      ],
      "payable": false,
      "stateMutability": "view",
      "type": "function"
    },
    {
      "constant": false,
      "inputs": [
        {
          "internalType": "string",
          "name": "_content",
          "type": "string"
        }
      ],
      "name": "createTask",
      "outputs": [],
      "payable": false,
      "stateMutability": "nonpayable",
      "type": "function"
    },
    {
      "constant": false,
      "inputs": [
        {
          "internalType": "uint256",
          "name": "_id",
          "type": "uint256"
        }
      ],
      "name": "toggleCompleted",
      "outputs": [],
      "payable": false,
      "stateMutability": "nonpayable",
      "type": "function"
    }
  ],
  "bytecode": "0x60806040526000805534801561001457600080fd5b50604080518082019091526012815271436f6d706f7374206c6566746f766572732160701b6020820152610050906001600160e01b0361018b16565b60408051808201909152601481527f5265647563652052657573652052656379636c650000000000000000000000006020820152610096906001600160e01b0361018b16565b6040805180820190915260118152704c696d69742073686f7765722074696d6560781b60208201526100d0906001600160e01b0361018b16565b60408051808201909152601b81527f5475726e20756e6e6563657373617279206c6967687473206f666600000000006020820152610116906001600160e01b0361018b16565b60408051808201909152601581527f576173686564206469736865732062792068616e640000000000000000000000602082015261015c906001600160e01b0361018b16565b6101866040518060600160405280602c815260200161095c602c91396001600160e01b0361018b16565b61034a565b60008054600190810180835560408051606081018252828152602080820187815282840187905293865284815291909420845181559151805192936101d8939085019291909101906102af565b5060408201518160020160006101000a81548160ff0219169083151502179055509050507f05d0fb833127fc08168556d0e7ca9554fc3f6bc843b3b7d2bf1c35aea6bab660600054826000604051808481526020018060200183151515158152602001828103825284818151815260200191508051906020019080838360005b83811015610270578181015183820152602001610258565b50505050905090810190601f16801561029d5780820380516001836020036101000a031916815260200191505b5094505050505060405180910390a150565b828054600181600116156101000203166002900490600052602060002090601f016020900481019282601f106102f057805160ff191683800117855561031d565b8280016001018555821561031d579182015b8281111561031d578251825591602001919060010190610302565b5061032992915061032d565b5090565b61034791905b808211156103295760008155600101610333565b90565b610603806103596000396000f3fe608060405234801561001057600080fd5b506004361061004c5760003560e01c8063111002aa14610051578063455f5024146100f95780638d97767214610116578063b6cb58a5146101bd575b600080fd5b6100f76004803603602081101561006757600080fd5b81019060208101813564010000000081111561008257600080fd5b82018360208201111561009457600080fd5b803590602001918460018302840111640100000000831117156100b657600080fd5b91908080601f0160208091040260200160405190810160405280939291908181526020018383808284376000920191909152509295506101d7945050505050565b005b6100f76004803603602081101561010f57600080fd5b50356102fb565b6101336004803603602081101561012c57600080fd5b503561045b565b604051808481526020018060200183151515158152602001828103825284818151815260200191508051906020019080838360005b83811015610180578181015183820152602001610168565b50505050905090810190601f1680156101ad5780820380516001836020036101000a031916815260200191505b5094505050505060405180910390f35b6101c561050a565b60408051918252519081900360200190f35b600080546001908101808355604080516060810182528281526020808201878152828401879052938652848152919094208451815591518051929361022493908501929190910190610510565b5060408201518160020160006101000a81548160ff0219169083151502179055509050507f05d0fb833127fc08168556d0e7ca9554fc3f6bc843b3b7d2bf1c35aea6bab660600054826000604051808481526020018060200183151515158152602001828103825284818151815260200191508051906020019080838360005b838110156102bc5781810151838201526020016102a4565b50505050905090810190601f1680156102e95780820380516001836020036101000a031916815260200191505b5094505050505060405180910390a150565b61030361058e565b60008281526001602081815260409283902083516060810185528154815281840180548651600296821615610100026000190190911695909504601f810185900485028601850190965285855290949193858401939092908301828280156103ac5780601f10610381576101008083540402835291602001916103ac565b820191906000526020600020905b81548152906001019060200180831161038f57829003601f168201915b50505091835250506002919091015460ff161515602091820152604080830180511590526000858152600180845291902083518155838301518051949550859491936103fd93850192910190610510565b50604091820151600291909101805460ff1916911515919091179055818101518151848152901515602082015281517fe21fa966ca5cd02748c0752352d18c48165e61cb55b4c29cccf924b5a95fcff1929181900390910190a15050565b600160208181526000928352604092839020805481840180548651600296821615610100026000190190911695909504601f810185900485028601850190965285855290949193929091908301828280156104f75780601f106104cc576101008083540402835291602001916104f7565b820191906000526020600020905b8154815290600101906020018083116104da57829003601f168201915b5050506002909301549192505060ff1683565b60005481565b828054600181600116156101000203166002900490600052602060002090601f016020900481019282601f1061055157805160ff191683800117855561057e565b8280016001018555821561057e579182015b8281111561057e578251825591602001919060010190610563565b5061058a9291506105b1565b5090565b604051806060016040528060008152602001606081526020016000151581525090565b6105cb91905b8082111561058a57600081556001016105b7565b9056fea265627a7a72315820f16495691c53c9d8289ebdc47eb56668a949a99a582c58bba2cced5170882b9364736f6c63430005100032436172706f6f6c65642f57616c6b65642f42696b65642f55736564205075626c6963205472616e73706f7274",
  "source": "pragma solidity ^0.5.0;\n\ncontract TodoList {\n    uint256 public taskCount = 0; /// everyone starts off with 6 tasks\n\n    struct Task {\n        uint256 id;\n        string content;\n        bool completed;\n    }\n\n    mapping(uint256 => Task) public tasks;\n\n    event TaskCreated(uint256 id, string content, bool completed);\n\n    event TaskCompleted(uint256 id, bool completed);\n\n    constructor() public {\n        createTask(\"Compost leftovers!\");\n        createTask(\"Reduce Reuse Recycle\");\n        createTask(\"Limit shower time\");\n        createTask(\"Turn unnecessary lights off\");\n        createTask(\"Washed dishes by hand\");\n        createTask(\"Carpooled/Walked/Biked/Used Public Transport\");\n    }\n\n    function createTask(string memory _content) public {\n        taskCount++;\n        tasks[taskCount] = Task(taskCount, _content, false);\n        emit TaskCreated(taskCount, _content, false);\n    }\n\n    function toggleCompleted(uint256 _id) public {\n        Task memory _task = tasks[_id];\n        _task.completed = !_task.completed;\n        tasks[_id] = _task;\n        emit TaskCompleted(_id, _task.completed);\n    }\n}\n",
  "sourcePath": "/Users/AlWu/eth-todo-list/contracts/TodoList.sol",
  "compiler": {
    "name": "solc",
    "version": "0.5.16+commit.9c3226ce.Emscripten.clang"
  },
  "schemaVersion": "3.3.2",
  "updatedAt": "2020-11-30T19:19:57.654Z",
  "networkType": "ethereum",
  "devdoc": {
    "methods": {}
  },
  "userdoc": {
    "methods": {}
  }
}